:100000000C945B000C9481000C9481000C94810092
:100010000C9481000C9481000C9481000C94E102FA
:100020000C9481000C9481000C9481000C9481004C
:100030000C9481000C9481000C9481000C9481003C
:100040000C94AC040C9481000C94FD060C9481007B
:100050000C9481000C9481000C9481000C9481001C
:100060000C9481000C948100AB0400000007000296
:10007000010000030406000000000000000001026F
:100080000408102040800102040810200102040826
:100090001020040404040404040402020202020204
:1000A0000303030303030000232629000025282B54
:1000B000000024272A0011241FBECFEFD4E0DEBFAA
:1000C000CDBF13E0A0E0B1E0E0E3F1E102C00590B4
:1000D0000D92AE39B107D9F714E0AEE9B3E001C033
:1000E0001D92A634B107E1F710E0CAE6D0E004C0E3
:1000F0002297FE010E949408C836D107C9F70C94D4
:10010000DB030C9400000F931F9392E09093700018
:100110008FE78093B3009093B0009093B10080E597
:100120008CBD81E08DBD84B18E6284B9299A7894AA
:1001300061E084E00E94D10561E083E00E94D10586
:1001400061E082E00E94D10560E087E00E94D10575
:1001500060E086E00E94D10560E085E00E94D10564
:1001600061E084E00E94380661E083E00E94380686
:1001700061E082E00E94380661E088E00E94D105DB
:1001800061E088E00E94380664E670E080E090E07C
:100190000E94E90460E088E00E94380664E670E0AE
:1001A00080E090E00E94E90461E088E00E94380667
:1001B00064E670E080E090E00E94E90460E088E09E
:1001C0000E9438060DEB13E040E855E260E070E075
:1001D000C8010E94E80361E873E0C8010E941B04A3
:1001E00067E873E0C8010E941B041F910F910895F6
:1001F000EF92FF920F931F93CF93DF93109211030F
:10020000109212031092130310921403C0E0D0E076
:10021000CE018170682F84E00E943806BE0175957A
:100220006795617083E00E943806BE0175956795F9
:1002300075956795617082E00E943806E090110321
:10024000F0901203009113031091140385E00E94B3
:10025000EF050C2E02C0880F991F0A94E2F7AA2717
:1002600097FDA095BA2F8E299F29A02BB12B8093A3
:10027000110390931203A0931303B09314032196D8
:10028000C830D10529F6BA2FA92F982F8827809337
:10029000110390931203A0931303B0931403C0E0CF
:1002A000D0E0CE018170682F84E00E943806BE0144
:1002B00075956795617083E00E943806BE0175955B
:1002C000679575956795617082E00E943806E090A9
:1002D0001103F0901203009113031091140386E0B0
:1002E0000E94EF050C2E02C0880F991F0A94E2F7B6
:1002F000AA2797FDA095BA2F8E299F29A02BB12B55
:100300008093110390931203A0931303B0931403EB
:100310002196C830D10529F6BA2FA92F982F882702
:100320008093110390931203A0931303B0931403CB
:10033000C0E0D0E0CE018170682F84E00E943806D2
:10034000BE0175956795617083E00E943806BE0115
:100350007595679575956795617082E00E9438067E
:10036000E0901103F0901203009113031091140315
:1003700087E00E94EF050C2E02C0880F991F0A9497
:10038000E2F7AA2797FDA095BA2F8E299F29A02BC7
:10039000B12B8093110390931203A0931303B09396
:1003A00014032196C830D10529F6B160809311035A
:1003B00090931203A0931303B0931403DF91CF9192
:1003C0001F910F91FF90EF900895CF92DF92EF92DF
:1003D000FF920F931F9382E00E9462059093BC03EB
:1003E0008093BB030E94F8001092BA031092B903E5
:1003F0001092B8031092B703E0901103F09012032B
:10040000009113031091140340E050E020E030E02D
:10041000D801C701022E04C0B695A7959795879578
:100420000A94D2F780FD0AC0FA01E954FC4F822FEA
:100430008F5F80834F5F5F4F437050702F5F3F4FE0
:100440002931310529F70091B6030F5F037000933E
:10045000B603C090BB03D090BC03EE24D7FCE0945D
:10046000FE2C1127E091B703FF27EE0FFF1FEE0FC1
:10047000FF1FEB5EFC4F6081718182819381A70138
:1004800096010E940F08E9E0969587957795679504
:10049000EA95D1F7002E04C09695879577956795D4
:1004A0000A94D2F7609301037093020380930303CD
:1004B00090930403E091B803FF27EE0FFF1FEE0FA8
:1004C000FF1FEB5EFC4F60817181828193810E94EE
:1004D0000F08B9E09695879577956795BA95D1F706
:1004E000002E04C096958795779567950A94D2F764
:1004F00060930503709306038093070390930803AA
:10050000E091B903FF27EE0FFF1FEE0FFF1FEB5E19
:10051000FC4F60817181828193810E940F08E9E024
:100520009695879577956795EA95D1F7002E04C043
:1005300096958795779567950A94D2F76093090306
:1005400070930A0380930B0390930C03E091BA031A
:10055000FF27EE0FFF1FEE0FFF1FEB5EFC4F6081CA
:100560007181828193810E940F08B9E096958795E9
:1005700077956795BA95D1F704C096958795779545
:1005800067950A95D2F760930D0370930E038093DD
:100590000F039093100380E00E9462059595879564
:1005A00095958795AA2797FDA095BA2FBC01CD01F7
:1005B0000E94E9041F910F91FF90EF90DF90CF9080
:1005C00008951F920F920FB60F9211242F933F930D
:1005D0004F938F939F93EF93FF938FE78093B30095
:1005E0008091AA039091AB03209101033091020303
:1005F000820F931F9093AB038093AA03892F9927AF
:10060000E82F8093A60340910003413021F4FF2797
:10061000E050FE4F05C0FF27423049F4E050FF4F45
:100620008081992790939F0380939E0304C0F09349
:100630009F03E0939E038091AC039091AD032091C2
:10064000050330910603820F931F9093AD038093AF
:10065000AC03892F9927E82F8093A703413021F419
:10066000FF27E050FE4F05C0FF27423049F4E0501D
:10067000FF4F808199279093A1038093A00304C02A
:10068000F093A103E093A0038091AE039091AF0398
:100690002091090330910A03820F931F9093AF03B7
:1006A0008093AE03892F9927E82F8093A8034130C8
:1006B00021F4FF27E050FE4F05C0FF27423049F4E8
:1006C000E050FF4F808199279093A3038093A2036A
:1006D00004C0F093A303E093A2038091B003909130
:1006E000B10320910D0330910E03820F931F90935D
:1006F000B1038093B003892F9927E82F8093A90332
:10070000413021F4FF27E050FE4F05C0FF27423063
:1007100049F4E050FF4F808199279093A50380937F
:10072000A40304C0F093A503E093A40380919E0367
:1007300090919F032091A0033091A103820F931FFA
:100740002091A2033091A303820F931F2091A40351
:100750003091A503820F931F36E0880F991F3A95B9
:10076000E1F79093B5038093B403292F33272295A3
:100770002F7020632093B303929582958F70892701
:100780009F708927382F8093B20329982EBD0DB40E
:1007900007FEFDCF3EBD0DB407FEFDCF299AFF91A8
:1007A000EF919F918F914F913F912F910F900FBE9D
:1007B0000F901F901895CFEFD4E0DEBFCDBF0E9401
:1007C00018050E9483000E94E501FDCF0895089559
:1007D000CB01BA010E94830608950E94C40699279E
:1007E00008950E94D50608950E94F4060895862F64
:1007F0000E943B070895CB010E9442070895862F6F
:100800000E943B0708950F931F938C016DE00E9497
:10081000F7036AE0C8010E94F7031F910F91089542
:100820000F931F938C010E94F703C8010E940304D9
:100830001F910F9108950F931F938C010E94FB034A
:10084000C8010E9403041F910F9108950F931F93F5
:100850008C010E94FF03C8010E9403041F910F91A5
:100860000895CB01BA013327442755270E944F072B
:1008700008952AE00E94310408950F931F938C017C
:100880000E943904C8010E9403041F910F9108952A
:10089000AB01662777270E9439040895EF92FF92F3
:1008A0000F931F93CF93DF93EC017A018B0177FFB6
:1008B0000BC06DE20E94F70310950095F094E09450
:1008C000E11CF11C011D111D2AE0B801A701CE0198
:1008D0000E943104DF91CF911F910F91FF90EF9013
:1008E00008950F931F938C010E944E04C8010E942B
:1008F00003041F910F9108952115310521F4642FF0
:100900000E94F70308952A30310519F40E944E041D
:1009100008950E94310408950F931F938C010E9443
:100920007C04C8010E9403041F910F910895AB013C
:10093000662757FD6095762F0E944E0408950F9309
:100940001F938C010E949704C8010E9403041F9109
:100950000F910895089508951F920F920FB60F9268
:1009600011248F939F93AF93BF938091C203909173
:10097000C303A091C403B091C5030196A11DB11D8D
:100980008093C2039093C303A093C403B093C503A1
:10099000BF91AF919F918F910F900FBE0F901F90BD
:1009A00018956091C2037091C3038091C403909124
:1009B000C50327E0660F771F881F991F2A95D1F777
:1009C0002DE730E040E050E00E944108CA01B90143
:1009D0000895AF92BF92CF92DF92EF92FF920F9362
:1009E0001F935B016C010E94D1047B018C010E946A
:1009F000D1046E197F09800B910B6A157B058C055C
:100A00009D05A8F31F910F91FF90EF90DF90CF907D
:100A1000BF90AF900895019751F0880F991F880FEC
:100A2000991F02972FB7F8940197F1F72FBF0895F8
:100A300078941092C2031092C3031092C4031092D0
:100A4000C50384B5826084BD84B5816084BD85B5ED
:100A5000826085BD85B5816085BDEEE6F0E0808170
:100A600081608083E1E8F0E0808182608083808122
:100A700081608083E0E8F0E0808181608083E1EB49
:100A8000F0E0808184608083E0EBF0E08081816031
:100A90008083ECE7F0E080818F77808380818064C1
:100AA0008083EAE7F0E080818460808380818260D7
:100AB00080838081816080838081806880831092C0
:100AC000C100089590917C00907F8F70982B909337
:100AD0007C0080917A00806480937A0080917A0013
:100AE00086FDFCCF20917800809179009927982F7E
:100AF00088273327822B932B08951F93CF93DF935F
:100B0000182FEB0161E00E94D105E12FFF27E65984
:100B1000FF4F8491833051F48091800080688093EE
:100B20008000D0938900C093880037C0843051F48E
:100B300080918000806280938000D0938B00C0936E
:100B40008A002BC0813029F484B5806884BDC7BD7C
:100B500024C0823029F484B5806284BDC8BD1DC024
:100B6000863041F48091B00080688093B000C093DB
:100B7000B30013C0873041F48091B000806280934D
:100B8000B000C093B40009C0C038D10514F460E0CF
:100B900001C061E0812F0E943806DF91CF911F9143
:100BA0000895282F3327C90182589F4FFC01949143
:100BB0002E563F4FF9018491882381F0E82FFF27BB
:100BC000E055FF4FE491FF27662329F4808190953B
:100BD0008923808308958081892B80830895482FFD
:100BE0005527CA0186599F4FFC012491CA0182589A
:100BF0009F4FFC0194914E565F4FFA01349133237D
:100C0000A1F1222331F1233021F4809180008F77EC
:100C100005C0243031F4809180008F7D8093800066
:100C200018C0213019F484B58F7704C0223021F424
:100C300084B58F7D84BD0DC0263021F48091B00035
:100C40008F7705C0273029F48091B0008F7D809385
:100C5000B000E32FFF27EA55FF4FE491FF27808183
:100C6000892319F081E090E0089580E090E00895F4
:100C7000482F5527CA0186599F4FFC012491CA016C
:100C800082589F4FFC0194914E565F4FFA01349168
:100C90003323C1F1222331F1233021F480918000EC
:100CA0008F7705C0243031F4809180008F7D809350
:100CB000800018C0213019F484B58F7704C0223029
:100CC00021F484B58F7D84BD0DC0263021F4809140
:100CD000B0008F7705C0273029F48091B0008F7D58
:100CE0008093B000E32FFF27E555FF4FE491FF27E6
:100CF000662329F4808190958923808308958081DB
:100D0000892B80830895EF92FF920F931F937B01AD
:100D10008C0122E030E040E050E00E946308205C5B
:100D20003D4B404F5F4FCA01B901A80197010E9496
:100D300063082150304040405040BB2757FDBA95D2
:100D4000A52F942F832F2F5F3F4F4F4F5F4F8093DF
:100D5000C50021502093C400E1ECF0E08081806167
:100D600080838081886080838081806880831F91F8
:100D70000F91FF90EF900895982F8091C00085FF0C
:100D8000FCCF9093C60008958091C0039091C10359
:100D90002091BE033091BF03821B930B80589F4F5D
:100DA00060E870E00E942E0808954091BE035091C3
:100DB000BF038091C0039091C1038417950719F474
:100DC0008FEF9FEF0895FA01EA53FC4F2081CA018B
:100DD000019660E870E00E942E089093BF03809314
:100DE000BE03822F992708958091BE039091BF037F
:100DF0009093C1038093C00308951F920F920FB682
:100E00000F9211242F933F934F935F936F937F9390
:100E10008F939F93AF93BF93EF93FF934091C6003F
:100E2000E091C003F091C103CF01019660E870E04A
:100E30000E942E089C018091BE039091BF03281749
:100E4000390739F0EA53FC4F40833093C1032093B4
:100E5000C003FF91EF91BF91AF919F918F917F91CF
:100E60006F915F914F913F912F910F900FBE0F9017
:100E70001F90189508950E94BC0608958AE00E946C
:100E80003B070895CF93DF93EC0103C021960E94A6
:100E90003B0788818823D1F7DF91CF9108952F9266
:100EA0003F924F925F926F927F928F929F92AF92FA
:100EB000BF92CF92DF92EF92FF920F931F93CF9347
:100EC000DF93CDB7DEB7A0970FB6F894DEBF0FBEA5
:100ED000CDBF6B017C0119012A01611571058105E6
:100EE000910521F480E30E943B074BC066247724E0
:100EF00043015E010894A11CB11C8501060D171D5C
:100F0000C701B601A20191010E944108F801608366
:100F10000894611C711C811C911CC701B601A201BF
:100F200091010E94410869017A01211531054105AD
:100F3000510519F773010894E108F108EA0CFB1C4C
:100F4000AA24BB24650111C0F70180818A3010F406
:100F5000805D01C0895C0E943B070894A108B1082C
:100F6000C108D1080894E108F10888279927DC0115
:100F700086199709A809B909A816B906CA06DB0691
:100F800019F7A0960FB6F894DEBF0FBECDBFDF9164
:100F9000CF911F910F91FF90EF90DF90CF90BF9076
:100FA000AF909F908F907F906F905F904F903F9009
:100FB0002F900895EF92FF920F931F937B018C0166
:100FC00097FF0BC08DE20E943B0710950095F094AF
:100FD000E094E11CF11C011D111D2AE030E040E00D
:100FE00050E0C801B7010E944F071F910F91FF9079
:100FF000EF90089520E130E040E050E00E944F077C
:10100000089528E030E040E050E00E944F07089546
:1010100022E030E040E050E00E944F070895629FD8
:10102000D001739FF001829FE00DF11D649FE00DE0
:10103000F11D929FF00D839FF00D749FF00D659F41
:10104000F00D9927729FB00DE11DF91F639FB00D40
:10105000E11DF91FBD01CF011124089597FB092E51
:1010600007260AD077FD04D049D006D000201AF414
:10107000709561957F4F0895F6F7909581959F4FF4
:101080000895A1E21A2EAA1BBB1BFD010DC0AA1FC9
:10109000BB1FEE1FFF1FA217B307E407F50720F0E1
:1010A000A21BB30BE40BF50B661F771F881F991F5C
:1010B0001A9469F760957095809590959B01AC01A5
:1010C000BD01CF01089597FB092E05260ED057FDCF
:1010D00004D0D7DF0AD0001C38F4509540953095E5
:1010E00021953F4F4F4F5F4F0895F6F790958095AC
:1010F000709561957F4F8F4F9F4F0895AA1BBB1B23
:1011000051E107C0AA1FBB1FA617B70710F0A61B07
:10111000B70B881F991F5A95A9F780959095BC0128
:10112000CD010895EE0FFF1F0590F491E02D099475
:1011300000020406080A0C0E10121416181A1C1EBF
:1011400020222426282A2C2E30323436383A3C3EAF
:1011500040424446484A4C4E50525456585A5C5E9F
:1011600060626466686A6C6E70727476787A7C7E8F
:1011700080828486888A8C8E90929496989A9C9E7F
:10118000A0A2A4A6A8AAACAEB0B2B4B6B8BABCBE6F
:10119000C0C2C4C6C8CACCCED0D2D4D6D8DADCDE5F
:1011A000E0E2E4E6E8EAECEEF0F2F4F6F8FAFCFE4F
:1011B000FFFDFBF9F7F5F3F1EFEFEBE9E7E5E3E12D
:1011C000DFDDDBD9D7D5D3D1CFCFCBC9C7C5C3C11D
:1011D000BFBDBBB9B7B5B3B1AFAFABA9A7A5A3A10D
:1011E0009F9D9B99979593918F8F8B8987858381FD
:1011F0007F7D7B79777573716F6F6B6967656361ED
:101200005F5D5B59575553514F4F4B4947454341DC
:101210003F3D3B39373533312F2F2B2927252321CC
:101220001F1D1B19171513110F0F0B0907050301BC
:10123000808386898C8F9295989C9FA2A5A8ABAE3F
:10124000B0B3B6B9BCBFC1C4C7C9CCCED1D3D5D851
:10125000DADCDEE0E2E4E6E8EAECEDEFF0F2F3F50A
:10126000F6F7F8F9FAFBFCFCFDFEFEFFFFFFFFFFBF
:10127000FFFFFFFFFFFFFEFEFDFCFCFBFAF9F8F7A6
:10128000F6F5F3F2F0EFEDECEAE8E6E4E2E0DEDCBE
:10129000DAD8D5D3D1CECCC9C7C4C1BFBCB9B6B3D7
:1012A000B0AEABA8A5A29F9C9895928F8C8986839F
:1012B000807C797673706D6A6763605D5A575451AC
:1012C0004F4C494643403E3B383633312E2C2A277B
:1012D0002523211F1D1B1917151312100F0D0C0AA2
:1012E00009080706050403030201010000000000CD
:1012F00000000000000001010203030405060708C6
:10130000090A0C0D0F1012131517191B1D1F21238D
:1013100025272A2C2E313336383B3E404346494C54
:101320004F5154575A5D6063676A6D707376797C6C
:10133000027805000000000000000000000000002E
:1013400000FFFFFFFF0000000020170000801800D2
:1013500000F5190000801B0000231D0000DE1E00A8
:1013600000B4200000A6220000B5240000E42600FE
:101370000034290000A72B0000402E00000031009F
:1013800000EA33000000370000463A0000BC3D0090
:1013900000684100004C4500006A490000C84D004B
:1013A00000685200004E570000805C0000006200A0
:1013B0000068656C6C6F0077656C636F6D65207499
:0E13C0006F2073796E74686573697A657200C8
:00000001FF
