:100000000C945B000C9481000C9481000C94810092
:100010000C9481000C9481000C9481000C945B0280
:100020000C9481000C9481000C9481000C9481004C
:100030000C9481000C9481000C9481000C9481003C
:100040000C94E2030C9481000C9433060C94810010
:100050000C9481000C9481000C9481000C9481001C
:100060000C9481000C948100E10300000007000261
:10007000010000030406000000000000000001026F
:100080000408102040800102040810200102040826
:100090001020040404040404040402020202020204
:1000A0000303030303030000232629000025282B54
:1000B000000024272A0011241FBECFEFD4E0DEBFAA
:1000C000CDBF12E0A0E0B1E0ECE9FFE002C0059096
:1000D0000D92AE38B107D9F713E0AEE8B2E001C037
:1000E0001D92A333B107E1F710E0CAE6D0E004C0E7
:1000F0002297FE010E94CA07C836D107C9F70C949F
:1001000011030C9400000F931F9392E090937000E2
:100110008FE78093B3009093B0009093B10080E597
:100120008CBD81E08DBD84B18E6284B9299A7894AA
:1001300061E084E00E94070561E083E00E9407051A
:1001400061E082E00E94070560E087E00E94070509
:1001500060E086E00E94070560E085E00E940705F8
:1001600061E084E00E946E0561E083E00E946E051C
:1001700061E082E00E946E0561E088E00E94070570
:1001800061E088E00E946E0564E670E080E090E047
:100190000E941F0460E088E00E946E0564E670E043
:1001A00080E090E00E941F0461E088E00E946E05FC
:1001B00064E670E080E090E00E941F0460E088E068
:1001C0000E946E050AEA12E040E855E260E070E045
:1001D000C8010E941E0360E772E0C8010E9451033B
:1001E00066E772E0C8010E9451031F910F910895C4
:1001F000EF92FF920F931F93CF93DF931092000221
:10020000109201021092020210920302C0E0D0E0AC
:10021000CE018170682F84E00E946E05BE01759545
:100220006795617083E00E946E05BE0175956795C4
:1002300075956795617082E00E946E05E0900002FE
:10024000F0900102009102021091030285E00E94E9
:1002500025050C2E02C0880F991F0A94E2F7AA27E1
:1002600097FDA095BA2F8E299F29A02BB12B8093A3
:10027000000290930102A0930202B0930302219620
:10028000C830D10529F6BA2FA92F982F8827809337
:10029000000290930102A0930202B0930302C0E017
:1002A000D0E0CE018170682F84E00E946E05BE010F
:1002B00075956795617083E00E946E05BE01759526
:1002C000679575956795617082E00E946E05E09074
:1002D0000002F0900102009102021091030286E0F8
:1002E0000E9425050C2E02C0880F991F0A94E2F780
:1002F000AA2797FDA095BA2F8E299F29A02BB12B55
:100300008093000290930102A0930202B093030233
:100310002196C830D10529F6BA2FA92F982F882702
:100320008093000290930102A0930202B093030213
:10033000C0E0D0E0CE018170682F84E00E946E059D
:10034000BE0175956795617083E00E946E05BE01E0
:100350007595679575956795617082E00E946E0549
:10036000E0900002F090010200910202109103025D
:1003700087E00E9425050C2E02C0880F991F0A9461
:10038000E2F7AA2797FDA095BA2F8E299F29A02BC7
:10039000B12B8093000290930102A0930202B093CC
:1003A00003022196C830D10529F6B160809300027E
:1003B00090930102A0930202B0930302DF91CF91C8
:1003C0001F910F91FF90EF900895CF93DF9380E0FE
:1003D0000E94980495958795959587959093A90285
:1003E0008093A80281E00E94980495958795959541
:1003F00087958093A70282E00E9498049093A502BB
:100400008093A4020E94F800209100023091010222
:100410004091020250910302C0E0D0E0DA01C9012C
:100420000C2E04C0B695A795979587950A94D2F798
:1004300080FF18C02196C931D10581F760E070E0D6
:10044000CB01AA2797FDA095BA2F80930402909321
:100450000502A0930602B0930702699701F5109276
:10046000A60220C0FE01EE0FFF1FEE0FFF1FE85F88
:10047000FD4F2091A4023091A502442737FD4095FD
:10048000542F60817181828193810E944507ACE085
:100490009695879577956795AA95D1F7D1CF8FEFE8
:1004A0008093A60265E070E080E090E00E941F0467
:1004B000DF91CF9108951F920F920FB60F921124E2
:1004C000EF92FF920F931F932F933F934F935F935E
:1004D0006F937F938F939F93AF93BF93EF93FF930C
:1004E0008FE78093B3002998E0900402F090050212
:1004F00000910602109107022091A8023091A902F2
:1005000044275527C801B7010E944507B6E09695D4
:10051000879577956795BA95D1F770939802609310
:100520009702E0919902F0919A02E60FF71FF0937B
:100530009A02E0939902EF2FFF27E0939602E05092
:10054000FF4F808199272091A7023327AC01429F5A
:10055000C001439F900D529F900D1124E3E09695AA
:100560008795EA95E1F7909393028093920274E065
:10057000220F331F7A95E1F7821B930B909395021C
:1005800080939402E80EF91EF0929F02E0929E0280
:10059000E091A002F091A102EE0DFF1DF093A102E7
:1005A000E093A002EF2FFF27E0939D02E050FF4F62
:1005B000808180939C022091A602829FC001112419
:1005C0009093A3028093A202292F332722952F70A4
:1005D000206320938F0244E0969587954A95E1F732
:1005E000382F80938E022EBD0DB407FEFDCF3EBD89
:1005F0000DB407FEFDCF299AFF91EF91BF91AF9106
:100600009F918F917F916F915F914F913F912F912A
:100610001F910F91FF90EF900F900FBE0F901F90C2
:100620001895CFEFD4E0DEBFCDBF0E944E040E94EC
:1006300083000E94E501FDCF08950895CB01BA0122
:100640000E94B90508950E94FA05992708950E940D
:100650000B0608950E942A060895862F0E947106AF
:100660000895CB010E9478060895862F0E94710696
:1006700008950F931F938C016DE00E942D036AE093
:10068000C8010E942D031F910F9108950F931F938E
:100690008C010E942D03C8010E9439031F910F9104
:1006A00008950F931F938C010E943103C8010E948B
:1006B00039031F910F9108950F931F938C010E948E
:1006C0003503C8010E9439031F910F910895CB0192
:1006D000BA013327442755270E94850608952AE04A
:1006E0000E94670308950F931F938C010E946F036C
:1006F000C8010E9439031F910F910895AB0166272D
:1007000077270E946F030895EF92FF920F931F9334
:10071000CF93DF93EC017A018B0177FF0BC06DE281
:100720000E942D0310950095F094E094E11CF11CBB
:10073000011D111D2AE0B801A701CE010E94670327
:10074000DF91CF911F910F91FF90EF9008950F933C
:100750001F938C010E948403C8010E9439031F91DA
:100760000F9108952115310521F4642F0E942D0366
:1007700008952A30310519F40E94840308950E94D7
:10078000670308950F931F938C010E94B203C80161
:100790000E9439031F910F910895AB01662757FD01
:1007A0006095762F0E94840308950F931F938C0108
:1007B0000E94CD03C8010E9439031F910F91089533
:1007C000089508951F920F920FB60F9211248F93E0
:1007D0009F93AF93BF938091AF029091B002A0918D
:1007E000B102B091B2020196A11DB11D8093AF027A
:1007F0009093B002A093B102B093B202BF91AF91B7
:100800009F918F910F900FBE0F901F901895609140
:10081000AF027091B0028091B1029091B20227E0D4
:10082000660F771F881F991F2A95D1F72DE730E0B3
:1008300040E050E00E947707CA01B9010895AF92E5
:10084000BF92CF92DF92EF92FF920F931F935B01C3
:100850006C010E9407047B018C010E9407046E1941
:100860007F09800B910B6A157B058C059D05A8F30C
:100870001F910F91FF90EF90DF90CF90BF90AF90BE
:100880000895019751F0880F991F880F991F0297BB
:100890002FB7F8940197F1F72FBF0895789410922D
:1008A000AF021092B0021092B1021092B20284B55F
:1008B000826084BD84B5816084BD85B5826085BD5C
:1008C00085B5816085BDEEE6F0E080818160808342
:1008D000E1E8F0E0808182608083808181608083B4
:1008E000E0E8F0E0808181608083E1EBF0E08081EE
:1008F00084608083E0EBF0E0808181608083ECE7BE
:10090000F0E080818F778083808180648083EAE754
:10091000F0E0808184608083808182608083808138
:10092000816080838081806880831092C1000895F7
:1009300090917C00907F8F70982B90937C00809199
:100940007A00806480937A0080917A0086FDFCCFE3
:1009500020917800809179009927982F8827332754
:10096000822B932B08951F93CF93DF93182FEB01C6
:1009700061E00E940705E12FFF27E659FF4F8491B0
:10098000833051F480918000806880938000D09300
:100990008900C093880037C0843051F48091800072
:1009A000806280938000D0938B00C0938A002BC01C
:1009B000813029F484B5806884BDC7BD24C08230ED
:1009C00029F484B5806284BDC8BD1DC0863041F461
:1009D0008091B00080688093B000C093B30013C0D2
:1009E000873041F48091B00080628093B000C09362
:1009F000B40009C0C038D10514F460E001C061E062
:100A0000812F0E946E05DF91CF911F910895282FAD
:100A10003327C90182589F4FFC0194912E563F4FB6
:100A2000F9018491882381F0E82FFF27E055FF4FDB
:100A3000E491FF27662329F48081909589238083A0
:100A400008958081892B80830895482F5527CA01F6
:100A500086599F4FFC012491CA0182589F4FFC0187
:100A600094914E565F4FFA0134913323A1F1222322
:100A700031F1233021F4809180008F7705C024303C
:100A800031F4809180008F7D8093800018C02130E8
:100A900019F484B58F7704C0223021F484B58F7D9A
:100AA00084BD0DC0263021F48091B0008F7705C041
:100AB000273029F48091B0008F7D8093B000E32F20
:100AC000FF27EA55FF4FE491FF278081892319F022
:100AD00081E090E0089580E090E00895482F552748
:100AE000CA0186599F4FFC012491CA0182589F4F29
:100AF000FC0194914E565F4FFA0134913323C1F1BA
:100B0000222331F1233021F4809180008F7705C0BA
:100B1000243031F4809180008F7D8093800018C054
:100B2000213019F484B58F7704C0223021F484B5C4
:100B30008F7D84BD0DC0263021F48091B0008F7769
:100B400005C0273029F48091B0008F7D8093B000DC
:100B5000E32FFF27E555FF4FE491FF27662329F494
:100B6000808190958923808308958081892B80835B
:100B70000895EF92FF920F931F937B018C0122E067
:100B800030E040E050E00E949907205C3D4B404F30
:100B90005F4FCA01B901A80197010E94990721502E
:100BA000304040405040BB2757FDBA95A52F942FA9
:100BB000832F2F5F3F4F4F4F5F4F8093C5002150D2
:100BC0002093C400E1ECF0E080818061808380812B
:100BD000886080838081806880831F910F91FF905F
:100BE000EF900895982F8091C00085FFFCCF9093DF
:100BF000C60008958091AD029091AE022091AB02A3
:100C00003091AC02821B930B80589F4F60E870E0DC
:100C10000E94640708954091AB025091AC0280910C
:100C2000AD029091AE028417950719F48FEF9FEFF4
:100C30000895FA01ED54FD4F2081CA01019660E844
:100C400070E00E9464079093AC028093AB02822F05
:100C5000992708958091AB029091AC029093AE02D7
:100C60008093AD0208951F920F920FB60F92112438
:100C70002F933F934F935F936F937F938F939F93A4
:100C8000AF93BF93EF93FF934091C600E091AD0205
:100C9000F091AE02CF01019660E870E00E94640717
:100CA0009C018091AB029091AC022817390739F072
:100CB000ED54FD4F40833093AE022093AD02FF917F
:100CC000EF91BF91AF919F918F917F916F915F91C4
:100CD0004F913F912F910F900FBE0F901F9018953D
:100CE00008950E94F20508958AE00E947106089511
:100CF000CF93DF93EC0103C021960E947106888197
:100D00008823D1F7DF91CF9108952F923F924F9290
:100D10005F926F927F928F929F92AF92BF92CF928B
:100D2000DF92EF92FF920F931F93CF93DF93CDB794
:100D3000DEB7A0970FB6F894DEBF0FBECDBF6B0134
:100D40007C0119012A01611571058105910521F4C4
:100D500080E30E9471064BC06624772443015E0144
:100D60000894A11CB11C8501060D171DC701B60111
:100D7000A20191010E947707F80160830894611C29
:100D8000711C811C911CC701B601A20191010E9436
:100D9000770769017A01211531054105510519F7D8
:100DA00073010894E108F108EA0CFB1CAA24BB2497
:100DB000650111C0F70180818A3010F4805D01C0A7
:100DC000895C0E9471060894A108B108C108D10885
:100DD0000894E108F10888279927DC01861997090A
:100DE000A809B909A816B906CA06DB0619F7A0961C
:100DF0000FB6F894DEBF0FBECDBFDF91CF911F912C
:100E00000F91FF90EF90DF90CF90BF90AF909F90A9
:100E10008F907F906F905F904F903F902F900895AC
:100E2000EF92FF920F931F937B018C0197FF0BC0F2
:100E30008DE20E94710610950095F094E094E11CFB
:100E4000F11C011D111D2AE030E040E050E0C80116
:100E5000B7010E9485061F910F91FF90EF900895B2
:100E600020E130E040E050E00E948506089528E04F
:100E700030E040E050E00E948506089522E030E036
:100E800040E050E00E9485060895629FD001739F64
:100E9000F001829FE00DF11D649FE00DF11D929F16
:100EA000F00D839FF00D749FF00D659FF00D992755
:100EB000729FB00DE11DF91F639FB00DE11DF91F79
:100EC000BD01CF011124089597FB092E07260AD0F2
:100ED00077FD04D049D006D000201AF470956195B2
:100EE0007F4F0895F6F7909581959F4F0895A1E261
:100EF0001A2EAA1BBB1BFD010DC0AA1FBB1FEE1F94
:100F0000FF1FA217B307E407F50720F0A21BB30BDE
:100F1000E40BF50B661F771F881F991F1A9469F75A
:100F200060957095809590959B01AC01BD01CF01B6
:100F3000089597FB092E05260ED057FD04D0D7DF64
:100F40000AD0001C38F450954095309521953F4FBC
:100F50004F4F5F4F0895F6F7909580957095619586
:100F60007F4F8F4F9F4F0895AA1BBB1B51E107C0B6
:100F7000AA1FBB1FA617B70710F0A61BB70B881F29
:100F8000991F5A95A9F780959095BC01CD010895B8
:0C0F9000EE0FFF1F0590F491E02D099476
:100F9C00808386898C8F9295989C9FA2A5A8ABAED6
:100FAC00B0B3B6B9BCBFC1C4C7C9CCCED1D3D5D8E8
:100FBC00DADCDEE0E2E4E6E8EAECEDEFF0F2F3F5A1
:100FCC00F6F7F8F9FAFBFCFCFDFEFEFFFFFFFFFF56
:100FDC00FFFFFFFFFFFFFEFEFDFCFCFBFAF9F8F73D
:100FEC00F6F5F3F2F0EFEDECEAE8E6E4E2E0DEDC55
:100FFC00DAD8D5D3D1CECCC9C7C4C1BFBCB9B6B36E
:10100C00B0AEABA8A5A29F9C9895928F8C89868335
:10101C00807C797673706D6A6763605D5A57545142
:10102C004F4C494643403E3B383633312E2C2A2711
:10103C002523211F1D1B1917151312100F0D0C0A38
:10104C000908070605040303020101000000000063
:10105C00000000000000010102030304050607085C
:10106C00090A0C0D0F1012131517191B1D1F212324
:10107C0025272A2C2E313336383B3E404346494CEB
:10108C004F5154575A5D6063676A6D707376797C03
:10109C00FFFFFFFF780500002017000080180000FC
:1010AC00F5190000801B0000231D0000DE1E00004F
:1010BC00B4200000A6220000B5240000E4260000A5
:1010CC0034290000A72B0000402E00000031000046
:1010DC00EA33000000370000463A0000BC3D000037
:1010EC00684100004C4500006A490000C84D0000F2
:1010FC00685200004E570000805C00000062000047
:10110C0068656C6C6F0077656C636F6D6520746FD0
:0E111C002073796E74686573697A65720000DD
:00000001FF
