:100000000C945B000C9481000C9481000C94810092
:100010000C9481000C9481000C9481000C94DC0001
:100020000C9481000C9481000C9481000C9481004C
:100030000C9481000C9481000C9481000C9481003C
:100040000C94FF010C9481000C94E1030C9481004A
:100050000C9481000C9481000C9481000C9481001C
:100060000C9481000C948100FE0100000007000246
:10007000010000030406000000000000000001026F
:100080000408102040800102040810200102040826
:100090001020040404040404040402020202020204
:1000A0000303030303030000232629000025282B54
:1000B000000024272A0011241FBECFEFD4E0DEBFAA
:1000C000CDBF12E0A0E0B1E0EAEBFAE002C005909B
:1000D0000D92A032B107D9F712E0A0E2B2E001C060
:1000E0001D92A43BB107E1F710E0CAE6D0E004C0DE
:1000F0002297FE010E945905C836D107C9F70C9412
:100100002E010C9400000F931F9392E090937000C7
:100110008FE78093B3009093B0009093B10080E597
:100120008CBD81E08DBD84B18E6284B9299A61E075
:1001300088E00E94B5020BE212E040E855E260E080
:1001400070E0C8010E943B0163E072E0C8010E94B8
:100150006E0169E072E0C8010E946E0178941F91FF
:100160000F91089585E397E0A0E0B0E08093270227
:1001700090932802A0932902B0932A0260ED77E0C1
:1001800080E090E00E943C0280912702909128023A
:10019000A0912902B0912A020196A11DB11D809360
:1001A000270290932802A0932902B0932A026AE0C2
:1001B00070E080E090E0E6CF1F920F920FB60F92B2
:1001C00011242F933F938F939F93EF93FF938FE788
:1001D0008093B300E0912102F091220280912702E6
:1001E00090912802E80FF91FF0932202E093210278
:1001F000EF2FFF27E0932002EE5FFE4F80819927CB
:100200009093010180930001982F882790932602F4
:1002100080932502292F332722952F702063209366
:10022000240234E0969587953A95E1F7382F80932C
:10023000230229982EBD0DB407FEFDCF3EBD0DB49F
:1002400007FEFDCF299AFF91EF919F918F913F91EA
:100250002F910F900FBE0F901F901895CFEFD4E005
:10026000DEBFCDBF0E946B020E9483000E94B200DD
:10027000FDCF08950895CB01BA010E946703089548
:100280000E94A803992708950E94B90308950E9427
:10029000D8030895862F0E941F040895CB010E9461
:1002A00026040895862F0E941F0408950F931F931C
:1002B0008C016DE00E944A016AE0C8010E944A0177
:1002C0001F910F9108950F931F938C010E944A0173
:1002D000C8010E9456011F910F9108950F931F931B
:1002E0008C010E944E01C8010E9456011F910F917E
:1002F00008950F931F938C010E945201C8010E9420
:1003000056011F910F910895CB01BA01332744275D
:1003100055270E94330408952AE00E94840108951D
:100320000F931F938C010E948C01C8010E945601FB
:100330001F910F910895AB01662777270E948C01CA
:100340000895EF92FF920F931F93CF93DF93EC01E9
:100350007A018B0177FF0BC06DE20E944A01109574
:100360000095F094E094E11CF11C011D111D2AE0A0
:10037000B801A701CE010E948401DF91CF911F91A6
:100380000F91FF90EF9008950F931F938C010E949F
:10039000A101C8010E9456011F910F9108952115D6
:1003A000310521F4642F0E944A0108952A30310555
:1003B00019F40E94A10108950E94840108950F93E9
:1003C0001F938C010E94CF01C8010E9456011F910A
:1003D0000F910895AB01662757FD6095762F0E9417
:1003E000A10108950F931F938C010E94EA01C80197
:1003F0000E9456011F910F910895089508951F922C
:100400000F920FB60F9211248F939F93AF93BF93C8
:100410008091300290913102A0913202B09133026A
:100420000196A11DB11D8093300290933102A093DB
:100430003202B0933302BF91AF919F918F910F9091
:100440000FBE0F901F90189560913002709131028D
:10045000809132029091330227E0660F771F881F48
:10046000991F2A95D1F72DE730E040E050E00E9437
:100470000605CA01B9010895AF92BF92CF92DF92EB
:10048000EF92FF920F931F935B016C010E94240275
:100490007B018C010E9424026E197F09800B910B55
:1004A0006A157B058C059D05A8F31F910F91FF90A0
:1004B000EF90DF90CF90BF90AF900895019751F0EB
:1004C000880F991F880F991F02972FB7F8940197EB
:1004D000F1F72FBF089578941092300210923102F4
:1004E000109232021092330284B5826084BD84B5CA
:1004F000816084BD85B5826085BD85B5816085BD1F
:10050000EEE6F0E0808181608083E1E8F0E08081C8
:1005100082608083808181608083E0E8F0E0808178
:1005200081608083E1EBF0E0808184608083E0EB98
:10053000F0E0808181608083ECE7F0E080818F775C
:100540008083808180648083EAE7F0E0808184603A
:1005500080838081826080838081816080838081CC
:10056000806880831092C1000895282F3327C90125
:1005700082589F4FFC0194912E563F4FF901849170
:10058000882381F0E82FFF27E055FF4FE491FF27F4
:10059000662329F480819095892380830895808142
:1005A000892B80830895482F5527CA0186599F4F6C
:1005B000FC012491CA0182589F4FFC0194914E5630
:1005C0005F4FFA0134913323A1F1222331F123301B
:1005D00021F4809180008F7705C0243031F4809120
:1005E00080008F7D8093800018C0213019F484B57D
:1005F0008F7704C0223021F484B58F7D84BD0DC077
:10060000263021F48091B0008F7705C0273029F47F
:100610008091B0008F7D8093B000E32FFF27EA55D3
:10062000FF4FE491FF278081892319F081E090E05A
:10063000089580E090E00895482F5527CA01865913
:100640009F4FFC012491CA0182589F4FFC01949155
:100650004E565F4FFA0134913323C1F1222331F119
:10066000233021F4809180008F7705C0243031F44D
:10067000809180008F7D8093800018C0213019F414
:1006800084B58F7704C0223021F484B58F7D84BD7A
:100690000DC0263021F48091B0008F7705C027303F
:1006A00029F48091B0008F7D8093B000E32FFF2765
:1006B000E555FF4FE491FF27662329F4808190954B
:1006C0008923808308958081892B80830895EF9208
:1006D000FF920F931F937B018C0122E030E040E0FA
:1006E00050E00E942805205C3D4B404F5F4FCA01FF
:1006F000B901A80197010E942805215030404040CF
:100700005040BB2757FDBA95A52F942F832F2F5FFD
:100710003F4F4F4F5F4F8093C50021502093C4003F
:10072000E1ECF0E08081806180838081886080835B
:100730008081806880831F910F91FF90EF900895D2
:10074000982F8091C00085FFFCCF9093C60008953C
:1007500080912E0290912F0220912C0230912D0237
:10076000821B930B80589F4F60E870E00E94F30457
:10077000089540912C0250912D0280912E0290916B
:100780002F028417950719F48FEF9FEF0895FA0150
:10079000EC5CFD4F2081CA01019660E870E00E9488
:1007A000F30490932D0280932C02822F99270895B1
:1007B00080912C0290912D0290932F0280932E0213
:1007C00008951F920F920FB60F9211242F933F930B
:1007D0004F935F936F937F938F939F93AF93BF9349
:1007E000EF93FF934091C600E0912E02F0912F020B
:1007F000CF01019660E870E00E94F3049C018091B3
:100800002C0290912D022817390739F0EC5CFD4F2E
:10081000408330932F0220932E02FF91EF91BF91DE
:10082000AF919F918F917F916F915F914F913F9188
:100830002F910F900FBE0F901F90189508950E9452
:10084000A00308958AE00E941F040895CF93DF93C8
:10085000EC0103C021960E941F0488818823D1F7F0
:10086000DF91CF9108952F923F924F925F926F92B6
:100870007F928F929F92AF92BF92CF92DF92EF9230
:10088000FF920F931F93CF93DF93CDB7DEB7A0975F
:100890000FB6F894DEBF0FBECDBF6B017C0119010E
:1008A0002A01611571058105910521F480E30E94FB
:1008B0001F044BC06624772443015E010894A11CE9
:1008C000B11C8501060D171DC701B601A2019101DA
:1008D0000E940605F80160830894611C711C811C4C
:1008E000911CC701B601A20191010E940605690190
:1008F0007A01211531054105510519F77301089455
:10090000E108F108EA0CFB1CAA24BB24650111C014
:10091000F70180818A3010F4805D01C0895C0E94FB
:100920001F040894A108B108C108D1080894E1087F
:10093000F10888279927DC0186199709A809B909C0
:10094000A816B906CA06DB0619F7A0960FB6F894E2
:10095000DEBF0FBECDBFDF91CF911F910F91FF90F2
:10096000EF90DF90CF90BF90AF909F908F907F904F
:100970006F905F904F903F902F900895EF92FF926D
:100980000F931F937B018C0197FF0BC08DE20E9498
:100990001F0410950095F094E094E11CF11C011DDA
:1009A000111D2AE030E040E050E0C801B7010E948C
:1009B00033041F910F91FF90EF90089520E130E0F4
:1009C00040E050E00E943304089528E030E040E029
:1009D00050E00E943304089522E030E040E050E00F
:1009E0000E943304089597FB092E07260AD077FD4D
:1009F00004D049D006D000201AF4709561957F4F3D
:100A00000895F6F7909581959F4F0895A1E21A2ECB
:100A1000AA1BBB1BFD010DC0AA1FBB1FEE1FFF1FA2
:100A2000A217B307E407F50720F0A21BB30BE40BF2
:100A3000F50B661F771F881F991F1A9469F7609539
:100A40007095809590959B01AC01BD01CF010895F3
:100A500097FB092E05260ED057FD04D0D7DF0AD00C
:100A6000001C38F450954095309521953F4F4F4FDD
:100A70005F4F0895F6F790958095709561957F4F3B
:100A80008F4F9F4F0895AA1BBB1B51E107C0AA1FA0
:100A9000BB1FA617B70710F0A61BB70B881F991F1F
:100AA0005A95A9F780959095BC01CD010895EE0F58
:0A0AB000FF1F0590F491E02D09945A
:100ABA000800808386898C8F9295989C9FA2A5A80E
:100ACA00ABAEB0B3B6B9BCBFC1C4C7C9CCCED1D323
:100ADA00D5D8DADCDEE0E2E4E6E8EAECEDEFF0F2C3
:100AEA00F3F5F6F7F8F9FAFBFCFCFDFEFEFFFFFF53
:100AFA00FFFFFFFFFFFFFFFFFEFEFDFCFCFBFAF915
:100B0A00F8F7F6F5F3F2F0EFEDECEAE8E6E4E2E006
:100B1A00DEDCDAD8D5D3D1CECCC9C7C4C1BFBCB903
:100B2A00B6B3B0AEABA8A5A29F9C9895928F8C89BC
:100B3A008683807C797673706D6A6763605D5A57C5
:100B4A0054514F4C494643403E3B383633312E2CA4
:100B5A002A272523211F1D1B1917151312100F0DE4
:100B6A000C0A090807060504030302010100000034
:100B7A000000000000000000010102030304050652
:100B8A000708090A0C0D0F1012131517191B1D1F40
:100B9A00212325272A2C2E313336383B3E40434623
:100BAA00494C4F5154575A5D6063676A6D7073764A
:100BBA00797CFF68656C6C6F0077656C636F6D6537
:100BCA0020746F2073796E74686573697A65720030
:00000001FF
