:100000000C945B080C9481080C9481080C94810872
:100010000C9481080C9481080C9481080C944A0A71
:100020000C9481080C9481080C9481080C9481082C
:100030000C9481080C9481080C9481080C9481081C
:100040000C948A0B0C9481080C94DB0D0C948108A1
:100050000C9481080C9481080C9481080C948108FC
:100060000C9481080C948108890B808386898C8F7D
:100070009295989C9FA2A5A8ABAEB0B3B6B9BCBFF1
:10008000C1C4C7C9CCCED1D3D5D8DADCDEE0E2E436
:10009000E6E8EAECEDEFF0F2F3F5F6F7F8F9FAFB43
:1000A000FCFCFDFEFEFFFFFFFFFFFFFFFFFFFFFF6A
:1000B000FEFEFDFCFCFBFAF9F8F7F6F5F3F2F0EFC3
:1000C000EDECEAE8E6E4E2E0DEDCDAD8D5D3D1CE46
:1000D000CCC9C7C4C1BFBCB9B6B3B0AEABA8A5A2AA
:1000E0009F9C9895928F8C898683807C797673709B
:1000F0006D6A6763605D5A5754514F4C494643409F
:100100003E3B383633312E2C2A272523211F1D1B39
:100110001917151312100F0D0C0A0908070605040C
:1001200003030201010000000000000000000000C5
:1001300001010203030405060708090A0C0D0F104C
:1001400012131517191B1D1F212325272A2C2E31A9
:100150003336383B3E404346494C4F5154575A5D25
:100160006063676A6D707376797C00000000000040
:10017000000000000000000000000000000000007F
:10018000000000000000000000000000000000006F
:10019000000000000000000000000000000000005F
:1001A000000000000000000000000000000000004F
:1001B000000000000000000000000000000000003F
:1001C000000000000000000000000000000000002F
:1001D000000000000000000000000000000000001F
:1001E00000000000000000000000FFFFFFFFFFFF15
:1001F000FFFFFFFFFFFFFFFFFFFFFFFFFFFFFFFF0F
:10020000FFFFFFFFFFFFFFFFFFFFFFFFFFFFFFFFFE
:10021000FFFFFFFFFFFFFFFFFFFFFFFFFFFFFFFFEE
:10022000FFFFFFFFFFFFFFFFFFFFFFFFFFFFFFFFDE
:10023000FFFFFFFFFFFFFFFFFFFFFFFFFFFFFFFFCE
:10024000FFFFFFFFFFFFFFFFFFFFFFFFFFFFFFFFBE
:10025000FFFFFFFFFFFFFFFFFFFFFFFFFFFFFFFFAE
:10026000FFFFFFFFFFFFFFFFFFFF00000000000098
:10027000000000000000000000000000000000007E
:10028000000000000000000000000000000000006E
:10029000000000000000000000000000000000005E
:1002A000000000000000000000000000000000004E
:1002B000000000000000000000000000000000003E
:1002C000000000000000000000000000000000002E
:1002D000000000000000000000000000000000001E
:1002E000000000000000000000000000000000000E
:1002F00000000000000000000000000000000000FE
:1003000000000000000000000000000000000000ED
:1003100000000000000000000000000000000000DD
:1003200000000000000000000000000000000000CD
:1003300000000000000000000000FFFFFFFFFFFFC3
:10034000FFFFFFFFFFFFFFFFFFFFFFFFFFFFFFFFBD
:10035000FFFFFFFFFFFFFFFFFFFFFFFFFFFFFFFFAD
:10036000FFFFFFFFFFFFFFFFFFFF00020406080A79
:100370000C0E10121416181A1C1E20222426282ACD
:100380002C2E30323436383A3C3E40424446484ABD
:100390004C4E50525456585A5C5E60626466686AAD
:1003A0006C6E70727476787A7C7E80828486888A9D
:1003B0008C8E90929496989A9C9EA0A2A4A6A8AA8D
:1003C000ACAEB0B2B4B6B8BABCBEC0C2C4C6C8CA7D
:1003D000CCCED0D2D4D6D8DADCDEE0E2E4E6E8EA6D
:1003E000ECEEF0F2F4F6F8FAFCFEFFFDFBF9F7F59F
:1003F000F3F1EFEDEBE9E7E5E3E1DFDDDBD9D7D5BD
:10040000D3D1CFCDCBC9C7C5C3C1BFBDBBB9B7B5AC
:10041000B3B1AFADABA9A7A5A3A19F9D9B9997959C
:1004200093918F8D8B89878583817F7D7B7977758C
:1004300073716F6D6B69676563615F5D5B5957557C
:1004400053514F4D4B49474543413F3D3B3937356C
:1004500033312F2D2B29272523211F1D1B1917155C
:1004600013110F0D0B0907050301FFFEFDFCFBFA3D
:10047000F9F8F7F6F5F4F3F2F1F0EFEEEDECEBEA64
:10048000E9E8E7E6E5E4E3E2E1E0DFDEDDDCDBDA54
:10049000D9D8D7D6D5D4D3D2D1D0CFCECDCCCBCA44
:1004A000C9C8C7C6C5C4C3C2C1C0BFBEBDBCBBBA34
:1004B000B9B8B7B6B5B4B3B2B1B0AFAEADACABAA24
:1004C000A9A8A7A6A5A4A3A2A1A09F9E9D9C9B9A14
:1004D000999897969594939291908F8E8D8C8B8A04
:1004E000898887868584838281807F7E7D7C7B7AF4
:1004F000797877767574737271706F6E6D6C6B6AE4
:10050000696867666564636261605F5E5D5C5B5AD3
:10051000595857565554535251504F4E4D4C4B4AC3
:10052000494847464544434241403F3E3D3C3B3AB3
:10053000393837363534333231302F2E2D2C2B2AA3
:10054000292827262524232221201F1E1D1C1B1A93
:10055000191817161514131211100F0E0D0C0B0A83
:10056000090807060504030201007F8E9DACBAC688
:10057000D2DCE4EAEFF2F4F4F4F2EFECE8E5E2DFE7
:10058000DCDAD9D8D8D9DADBDDDFE2E4E6E7E9EA7C
:10059000EAEAE9E8E7E5E4E2E0DFDDDCDCDCDCDC3C
:1005A000DDDFE0E2E3E5E6E7E8E8E9E8E8E7E5E4FF
:1005B000E2E1DFDEDDDCDCDCDCDDDEDFE1E3E5E645
:1005C000E8E9EAEAEAE9E8E7E5E3E1DEDCDBD9D8F5
:1005D000D8D8D9DBDDE0E3E7EAEEF0F3F4F4F3F1A9
:1005E000EDE7E0D7CCC0B3A596867767584A3D3192
:1005F000261D16100C0A09090A0D0F13161A1D20C4
:1006000022242525252422211F1C1A18161514130F
:100610001313141517181A1C1E1F20212121212025
:100620001F1E1C1B19181615151415151617181A48
:100630001B1D1E202121212121201E1D1B191816E2
:100640001514131313141617191B1E202223242507
:10065000252423211E1B1815110E0B0909090B0E49
:100660001319212B374351606F7F001831475C6F9E
:100670007E8B949B9FA1A19F9D9A9896949393940F
:100680009597989A9B9B9B999794908C87827E7A5A
:100690007774727170707171727273737372727138
:1006A00070706F7070727476797C7F828587898AAA
:1006B0008A8988878582807D7B78767472706E6B7C
:1006C00067635E58514A423930281F1710090301E9
:1006D00005090D1014191E242B323A434B535A5F4F
:1006E0006263615C544A3C2D1B09091B2D3C4A5432
:1006F0005C6163625F5A534B433A322B241E1914D8
:10070000100D090501030910171F283039424A51FD
:10071000585E63676B6E70727476787B7D808285BD
:100720008788898A8A898785827F7C7976747270C6
:10073000706F7070717272737373727271717070A6
:10074000717274777A7E82878C909497999B9B9B29
:100750009A9897959493939496989A9D9FA1A19F08
:100760009B948B7E6F5C4731180000172E455A6EA4
:1007700080909EAAB4BBC0C4C6C6C5C3C0BCB8B432
:10078000B1ADAAA7A4A2A09E9C9B999694908C8898
:10079000837D766F686159514A423C36302B27235E
:1007A000201E1D1B1B1A1A1A1A1A1A1A1A1A1A1A9A
:1007B0001B1C1D1F2225292D33393F464D555D64D5
:1007C0006C737A80858A8E9295989A9C9D9FA1A33E
:1007D000A5A8ABAFB2B6BABEC1C4C5C6C5C2BEB885
:1007E000AFA4978877644F39230B0B23394F647775
:1007F0008897A4AFB8BEC2C5C6C5C4C1BEBAB6B29A
:10080000AFABA8A5A3A19F9D9C9A9895928E8A852F
:10081000807A736C645D554D463F39332D2925220E
:100820001F1D1C1B1A1A1A1A1A1A1A1A1A1A1A1B1C
:100830001B1D1E2023272B30363C424A515961682C
:100840006F767D83888C909496999B9C9EA0A2A4A1
:10085000A7AAADB1B4B8BCC0C3C5C6C6C4C0BBB4FA
:10086000AA9E90806E5A452E17000024486A89A6D9
:10087000BED3E3EEF5F7F4EDE2D5C4B29F8B776516
:100880005344372D26212021252B333B454F5962D8
:100890006A7176797A7977726C655D544B433B3433
:1008A0002F2B2827282B2F343A41484F555B5F6266
:1008B0006363605C5750473E342A21170F080300DA
:1008C000010100040910171F272E34383A3A373235
:1008D000291D0F01142940576D8398AABAC6CED29C
:1008E000D1CCC1B39F886D5031101031506D889FAD
:1008F000B3C1CCD1D2CEC6BAAA98836D57402914C1
:10090000010F1D2932373A3A38342E271F171009A4
:10091000040001010003080F17212A343E475057F5
:100920005C606363625F5B554F48413A342F2B280C
:1009300027282B2F343B434B545D656C7277797AB3
:100940007976716A62594F453B332B252120212648
:100950002D37445365778B9FB2C4D5E2EDF4F7F59C
:10096000EEE3D3BEA6896A4824007E66313F398D06
:100970009C4BAE2503A8AE411727064E94C8E4EB66
:10098000E1CBB0927459412D1D1008020001000204
:10099000060A10151B21262C31363A3E4245474A9D
:1009A0004B4D4D4E4E4D4C4B4A484644413F3C39D1
:1009B0003633302C2926231F1C191613110E0C094F
:1009C000070504020100000001010000000102040B
:1009D00006080A0D1013161A1D21262A2F34383E38
:1009E00043484E53595F646A70767C82888D939930
:1009F0009EA4A9AEB4B9BDC2C6CACED2D6D9DCDFD8
:100A0000E1E4E5E7E8EAEAEBEBEBEAEAE8E7E5E36D
:100A1000E1DFDCD9D5D1CEC9C5C0BBB6B1ACA6A08B
:100A20009A948E88817B746E67605A534D46403924
:100A3000332D27211B15100A050003080C1014176D
:100A40001B1D202224262829292A2A2A2A29282748
:100A50002523211E1B1815120E0A060103070C126E
:100A6000171C22282D33393F454B00000001060E8C
:100A70001E395F93CDF9EB6D76FD19FD75439179C4
:100A80001CF21BBCC01DFCB0DAB9FDEB6B3AFACA14
:100A9000E9FD5360FCD2F680FDF8FA76BF97ED01D0
:100AA000F271EF33481DBF5D827C388134BDA27A7C
:100AB00085C2920DD1E94062943CCA160BFDF73D08
:100AC0000FA0C0FAD0B39A5A4AFD6A53FCC9E3EFAB
:100AD000B0E878261B80F754E6B5CBE81FF0FDFDA3
:100AE000F2DAE6F5412ABA5FEE83719EC5BA2BF8B9
:100AF000CBE8FC54FAE48E1FF84C66E5C0FD2AFDF5
:100B00001EFDD2F6163684E3AA86CDFAFB4BA52746
:100B1000D3B660DAAEBBD10EFD3DE80E599B41E77E
:100B200004CADDAB6FFDFDA783F891ADC8B4FD3FEE
:100B3000DFE8E2B3C8EC4CF74B30FCFDA466F9FAF1
:100B4000D0F97040C4EEA7C921EEB78A6419E62334
:100B5000E3BEDEE239AEFBB1CAB3994EDED2D7F4C2
:100B60006DD59C4723FD8F10A2C50029517799B7F9
:100B7000CFE1EDF2F0E9DCCAB49B81654A3019049B
:100B80000C1923282927221B1208010A12191D1FDC
:100B90001E1B160E0505101B262F373D4143423FF5
:100BA0003B342D251C140D0703000001050A111804
:100BB000212931383D4143423F3A332A20150A006A
:100BC0000912191D1F1E1B160E06030D171F2529BE
:100BD00029261F13040E243D58738EA8BFD3E3EDBE
:100BE000F2F0E8D9C4A989653E14143E6589A9C408
:100BF000D9E8F0F2EDE3D3BFA88E73583D240E047C
:100C0000131F262929251F170D03060E161B1E1F4D
:100C10001D191209000A15202A333A3F4243413D6B
:100C20003831292118110A0501000003070D141C91
:100C3000252D343B3F4243413D372F261B100505F0
:100C40000E161B1E1F1D19120A0108121B2227292E
:100C50002823190C0419304A65819BB4CADCE9F0D9
:100C6000F2EDE1CFB79977512900000C1925323EFA
:100C70004B5764707D8995A2AEB9C5D0DAE2E8EB36
:100C8000E8DEC69D5E140AD20209EBDC8969FACF60
:100C900082441B020B1215151412100E0B090706C5
:100CA000040302010000000000000000000000003A
:100CB000010102030506080A0D0F11131515140F83
:100CC000050D2D60A8F0D3008B112DE7E3540138FA
:100CD00080B4D4E4EAEAE5DED5CABFB4A89B8F832A
:100CE000766A5D5144382B1F120606121F2B3844BA
:100CF000515D6A76838F9BA8B4BFCAD5DEE5EAEA68
:100D0000E4D4B480380154E3E72D118B00D3F0A86C
:100D1000602D0D050F14151513110F0D0A0806058A
:100D200003020101000000000000000000000000BC
:100D3000010203040607090B0E1012141515120BFD
:100D4000021B4482CFFA6989DCEB0902D20A145EE5
:100D50009DC6DEE8EBE8E2DAD0C5B9AEA295897DA2
:100D60007064574B3E3225190C00001225384C5F39
:100D700074889CAEBABA98302026C669E06F100D10
:100D80000E030B1C2C3C4B596673808C99A5B1BD8E
:100D9000CAD6E1EBEEE2B1370B4FAA10CD421A3BB7
:100DA000433F3830272018110B0401070E151C2370
:100DB0002C343C424130098E7A12C8DC117ED0EBD3
:100DC000EEE7DCD0C3B7AB9F93867A6D60524334B5
:100DD000241404090F0335B94CBA1DA7186FAFBD11
:100DE000B5A5927E6956422F1C09091C2F425669EF
:100DF0007E92A5B5BDAF6F18A71DBA4CB935030FCC
:100E000009041424344352606D7A86939FABB7C3B0
:100E1000D0DCE7EEEBD07E11DCC8127A8E093041CF
:100E2000423C342C231C150E0701040B11182027FB
:100E300030383F433B1A42CD10AA4F0B37B1E2EE98
:100E4000EBE1D6CABDB1A5998C807366594B3C2C99
:100E50001C0B030E0D106FE069C626203098BABA3D
:100E6000AE9C88745F4C38251200000F1F2F3F5036
:100E7000617384939D9A760C464E9D3FB4421D3B10
:100E80003C322212010F1F2E3D4C5B6A798897A7D6
:100E9000B7C7D6E4ECE4B8431C66C711F570190176
:100EA0000207142332404E5B6875828E9BA7B4C242
:100EB000D0DDEAF5F9EDB7364EDF0709E759090F3E
:100EC0001008020F1B27333E48535D67727D8893DD
:100ED0009FAAB5BEBEAC6D1D492BA5289000475DED
:100EE0005E574D41362C21170E04040E17212C3667
:100EF000414D575E5D47009028A52B491D6DACBE46
:100F0000BEB5AA9F93887D72675D53483E33271B09
:100F10000F0208100F0959E70907DF4E36B7EDF940
:100F2000F5EADDD0C2B4A79B8E8275685B4E403275
:100F300023140702011970F511C7661C43B8E4ECCD
:100F4000E4D6C7B7A79788796A5B4C3D2E1F0F017F
:100F50001222323C3B1D42B43F9C4E460C769A9D79
:100F600093847361503F2F1F0F007F818486888A8E
:100F70008B8C8D8C8C8A8885817B746C615443301A
:100F800019001A2F300389B23B289BB120DD74066B
:100F9000180C0F2E4C667D90A1AFBCC6CFD7DEE4F7
:100FA000E9EDF1F4F7F9FBFCFDFDFDFDFDFBFAF8C1
:100FB000F6F3EFEBE7E1DBD3CBC1B6A89987725923
:100FC0003D1F00151031BE74DB9B080F07CA3D1F83
:100FD00034260D0D253A4C5B6670787E8386898BAE
:100FE0008C8D8C8C8B89888583807D7976726D68F9
:100FF000635E58514A42393025190C031429405A6E
:101000007898B6C9B96226A19EBA1B204A0495DB1E
:10101000E3D1B69B826C5A4B3E332A231C17120E27
:101020000B08060403020100000000000001020496
:1010300005070A0D1014191F262E38445263778EA7
:10104000A8C4DCE4C2501CDC0617876F0B1899C7D4
:10105000C2A888694D341E0B04131F2B353E464E23
:10106000555B61666B6F74787B7F00000007000240
:10107000010000030406000000000000000001025F
:101080000408102040800102040810200102040816
:1010900010200404040404040404020202020202F4
:1010A0000303030303030000232629000025282B44
:1010B000000024272A0011241FBECFEFD4E0DEBF9A
:1010C000CDBF11E0A0E0B1E0E6E0FFE102C0059095
:1010D0000D92A039B107D9F712E0A0E9B1E001C043
:1010E0001D92A732B107E1F710E0CAE6D0E004C0D4
:1010F0002297FE010E947F0FC836D107C9F70C94D2
:10110000B90A0C9400000F931F9392E09093700023
:101110008FE78093B3009093B0009093B10080E587
:101120008CBD81E08DBD84B18E6284B9299A78949A
:1011300061E084E00E94AF0C61E083E00E94AF0CAC
:1011400061E082E00E94AF0C60E087E00E94AF0C9B
:1011500060E086E00E94AF0C60E085E00E94AF0C8A
:1011600061E084E00E94160D61E083E00E94160DAC
:1011700061E082E00E94160D61E088E00E94AF0C01
:1011800061E088E00E94160D64E670E080E090E087
:101190000E94C70B60E088E00E94160D64E670E0D4
:1011A00080E090E00E94C70B61E088E00E94160D8D
:1011B00064E670E080E090E00E94C70B60E088E0A9
:1011C0000E94160D10929C0110929B010EE911E0F5
:1011D00040E855E260E070E0C8010E94C60A62E79C
:1011E00071E0C8010E94F90A68E771E0C8010E9435
:1011F000F90A1F910F910895EF92FF920F931F9399
:10120000CF93DF931092000110920101109202011E
:1012100010920301C0E0D0E0CE018170682F84E01D
:101220000E94160DBE0175956795617083E00E945E
:10123000160DBE017595679575956795617082E08D
:101240000E94160DE0900001F09001010091020152
:101250001091030185E00E94CD0C0C2E02C0880F76
:10126000991F0A94E2F7AA2797FDA095BA2F8E2915
:101270009F29A02BB12B8093000190930101A09393
:101280000201B09303012196C830D10529F6BA2F87
:10129000A92F982F88278093000190930101A09394
:1012A0000201B0930301C0E0D0E0CE018170682F4D
:1012B00084E00E94160DBE0175956795617083E00C
:1012C0000E94160DBE0175956795759567956170BD
:1012D00082E00E94160DE0900001F0900101009163
:1012E00002011091030186E00E94CD0C0C2E02C079
:1012F000880F991F0A94E2F7AA2797FDA095BA2FA5
:101300008E299F29A02BB12B80930001909301017E
:10131000A0930201B09303012196C830D10529F6AC
:10132000BA2FA92F982F882780930001909301014D
:10133000A0930201B0930301C0E0D0E0CE01817020
:10134000682F84E00E94160DBE0175956795617047
:1013500083E00E94160DBE0175956795759567959A
:10136000617082E00E94160DE0900001F090010192
:10137000009102011091030187E00E94CD0C0C2E18
:1013800002C0880F991F0A94E2F7AA2797FDA0953B
:10139000BA2F8E299F29A02BB12B80930001909307
:1013A0000101A0930201B09303012196C830D10539
:1013B00029F6B1608093000190930101A09302018E
:1013C000B0930301DF91CF911F910F91FF90EF90A8
:1013D0000895CF93DF9382E00E94400C26E095951C
:1013E00087952A95E1F790939C0180939B010E9439
:1013F000FC082091000130910101409102015091BF
:101400000301C0E0D0E0DA01C9010C2E04C0B6959A
:10141000A795979587950A94D2F780FF18C02196D3
:10142000C931D10581F760E070E0CB01AA2797FDB3
:10143000A095BA2F8093060190930701A09308010D
:10144000B0930901699701F510929D0120C0FE013A
:10145000EE0FFF1FEE0FFF1FE65FFE4F209104010E
:1014600030910501442737FD4095542F60817181EB
:10147000828193810E94FA0EACE0969587957795CC
:101480006795AA95D1F7D1CF8FEF80939D01DF911A
:10149000CF9108951F920F920FB60F9211242F93A0
:1014A0003F934F935F936F937F938F939F93AF93EC
:1014B000BF93EF93FF938FE78093B3002998209118
:1014C0000601309107013093960120939501809198
:1014D000970190919801820F931F909398018093A8
:1014E0009701892F99278093940160919B017091B6
:1014F0009C01762F6627680F791F66597F4F41E060
:1015000050E083E991E00E94ED0E809193012091DB
:101510009D01829FC001112490939A0180939901AB
:10152000292F332722952F7020632093910134E0D7
:10153000969587953A95E1F7382F809390012EBDC7
:101540000DB407FEFDCF3EBD0DB407FEFDCF299AB9
:10155000FF91EF91BF91AF919F918F917F916F918B
:101560005F914F913F912F910F900FBE0F901F9061
:101570001895CFEFD4E0DEBFCDBF0E94F60B0E94DE
:1015800083080E94E909FDCF08950895CB01BA01AF
:101590000E94610D08950E94A20D992708950E944E
:1015A000B30D08950E94D20D0895862F0E94190E42
:1015B0000895CB010E94200E0895862F0E94190ED7
:1015C00008950F931F938C016DE00E94D50A6AE085
:1015D000C8010E94D50A1F910F9108950F931F9380
:1015E0008C010E94D50AC8010E94E10A1F910F9147
:1015F00008950F931F938C010E94D90AC8010E947D
:10160000E10A1F910F9108950F931F938C010E947F
:10161000DD0AC8010E94E10A1F910F910895CB01D4
:10162000BA013327442755270E942D0E08952AE03A
:101630000E940F0B08950F931F938C010E94170BAC
:10164000C8010E94E10A1F910F910895AB0166271E
:1016500077270E94170B0895EF92FF920F931F9325
:10166000CF93DF93EC017A018B0177FF0BC06DE222
:101670000E94D50A10950095F094E094E11CF11CAD
:10168000011D111D2AE0B801A701CE010E940F0B18
:10169000DF91CF911F910F91FF90EF9008950F93DD
:1016A0001F938C010E942C0BC8010E94E10A1F911C
:1016B0000F9108952115310521F4642F0E94D50A58
:1016C00008952A30310519F40E942C0B08950E94C8
:1016D0000F0B08950F931F938C010E945A0BC801A2
:1016E0000E94E10A1F910F910895AB01662757FDF3
:1016F0006095762F0E942C0B08950F931F938C01F9
:101700000E94750BC8010E94E10A1F910F91089574
:10171000089508951F920F920FB60F9211248F9380
:101720009F93AF93BF938091A3019091A401A09147
:10173000A501B091A6010196A11DB11D8093A30141
:101740009093A401A093A501B093A601BF91AF917E
:101750009F918F910F900FBE0F901F9018956091E1
:10176000A3017091A4018091A5019091A60127E0A9
:10177000660F771F881F991F2A95D1F72DE730E054
:1017800040E050E00E942C0FCA01B9010895AF92C9
:10179000BF92CF92DF92EF92FF920F931F935B0164
:1017A0006C010E94AF0B7B018C010E94AF0B6E1984
:1017B0007F09800B910B6A157B058C059D05A8F3AD
:1017C0001F910F91FF90EF90DF90CF90BF90AF905F
:1017D0000895019751F0880F991F880F991F02975C
:1017E0002FB7F8940197F1F72FBF089578941092CE
:1017F000A3011092A4011092A5011092A60184B534
:10180000826084BD84B5816084BD85B5826085BDFC
:1018100085B5816085BDEEE6F0E0808181608083E2
:10182000E1E8F0E080818260808380818160808354
:10183000E0E8F0E0808181608083E1EBF0E080818E
:1018400084608083E0EBF0E0808181608083ECE75E
:10185000F0E080818F778083808180648083EAE7F5
:10186000F0E08081846080838081826080838081D9
:10187000816080838081806880831092C100089598
:1018800090917C00907F8F70982B90937C0080913A
:101890007A00806480937A0080917A0086FDFCCF84
:1018A00020917800809179009927982F88273327F5
:1018B000822B932B08951F93CF93DF93182FEB0167
:1018C00061E00E94AF0CE12FFF27E659FF4E8491A3
:1018D000833051F480918000806880938000D093A1
:1018E0008900C093880037C0843051F48091800013
:1018F000806280938000D0938B00C0938A002BC0BD
:10190000813029F484B5806884BDC7BD24C082308D
:1019100029F484B5806284BDC8BD1DC0863041F401
:101920008091B00080688093B000C093B30013C072
:10193000873041F48091B00080628093B000C09302
:10194000B40009C0C038D10514F460E001C061E002
:10195000812F0E94160DDF91CF911F910895282F9E
:101960003327C90182589F4EFC0194912E563F4E59
:10197000F9018491882381F0E82FFF27E055FF4E7D
:10198000E491FF27662329F4808190958923808341
:1019900008958081892B80830895482F5527CA0197
:1019A00086599F4EFC012491CA0182589F4EFC012A
:1019B00094914E565F4EFA0134913323A1F12223C4
:1019C00031F1233021F4809180008F7705C02430DD
:1019D00031F4809180008F7D8093800018C0213089
:1019E00019F484B58F7704C0223021F484B58F7D3B
:1019F00084BD0DC0263021F48091B0008F7705C0E2
:101A0000273029F48091B0008F7D8093B000E32FC0
:101A1000FF27EA55FF4EE491FF278081892319F0C3
:101A200081E090E0089580E090E00895482F5527E8
:101A3000CA0186599F4EFC012491CA0182589F4ECB
:101A4000FC0194914E565F4EFA0134913323C1F15B
:101A5000222331F1233021F4809180008F7705C05B
:101A6000243031F4809180008F7D8093800018C0F5
:101A7000213019F484B58F7704C0223021F484B565
:101A80008F7D84BD0DC0263021F48091B0008F770A
:101A900005C0273029F48091B0008F7D8093B0007D
:101AA000E32FFF27E555FF4EE491FF27662329F436
:101AB000808190958923808308958081892B8083FC
:101AC0000895EF92FF920F931F937B018C0122E008
:101AD00030E040E050E00E944E0F205C3D4B404F14
:101AE0005F4FCA01B901A80197010E944E0F215012
:101AF000304040405040BB2757FDBA95A52F942F4A
:101B0000832F2F5F3F4F4F4F5F4F8093C500215072
:101B10002093C400E1ECF0E08081806180838081CB
:101B2000886080838081806880831F910F91FF90FF
:101B3000EF900895982F8091C00085FFFCCF90937F
:101B4000C60008958091A1019091A20120919F016A
:101B50003091A001821B930B80589F4F60E870E08A
:101B60000E94190F089540919F015091A00180910A
:101B7000A1019091A2018417950719F48FEF9FEFAF
:101B80000895FA01E955FE4F2081CA01019660E8E7
:101B900070E00E94190F9093A00180939F01822F03
:101BA0009927089580919F019091A0019093A2019F
:101BB0008093A10108951F920F920FB60F921124E6
:101BC0002F933F934F935F936F937F938F939F9345
:101BD000AF93BF93EF93FF934091C600E091A101B3
:101BE000F091A201CF01019660E870E00E94190F08
:101BF0009C0180919F019091A0012817390739F02D
:101C0000E955FE4F40833093A2012093A101FF913B
:101C1000EF91BF91AF919F918F917F916F915F9164
:101C20004F913F912F910F900FBE0F901F901895DD
:101C300008950E949A0D08958AE00E94190E089551
:101C4000CF93DF93EC0103C021960E94190E888187
:101C50008823D1F7DF91CF9108952F923F924F9231
:101C60005F926F927F928F929F92AF92BF92CF922C
:101C7000DF92EF92FF920F931F93CF93DF93CDB735
:101C8000DEB7A0970FB6F894DEBF0FBECDBF6B01D5
:101C90007C0119012A01611571058105910521F465
:101CA00080E30E94190E4BC06624772443015E0135
:101CB0000894A11CB11C8501060D171DC701B601B2
:101CC000A20191010E942C0FF80160830894611C0D
:101CD000711C811C911CC701B601A20191010E94D7
:101CE0002C0F69017A01211531054105510519F7BC
:101CF00073010894E108F108EA0CFB1CAA24BB2438
:101D0000650111C0F70180818A3010F4805D01C047
:101D1000895C0E94190E0894A108B108C108D10875
:101D20000894E108F10888279927DC0186199709AA
:101D3000A809B909A816B906CA06DB0619F7A096BC
:101D40000FB6F894DEBF0FBECDBFDF91CF911F91CC
:101D50000F91FF90EF90DF90CF90BF90AF909F904A
:101D60008F907F906F905F904F903F902F9008954D
:101D7000EF92FF920F931F937B018C0197FF0BC093
:101D80008DE20E94190E10950095F094E094E11CEC
:101D9000F11C011D111D2AE030E040E050E0C801B7
:101DA000B7010E942D0E1F910F91FF90EF900895A3
:101DB00020E130E040E050E00E942D0E089528E040
:101DC00030E040E050E00E942D0E089522E030E027
:101DD00040E050E00E942D0E0895FB01DC0140FF21
:101DE00005C002C005900D9205900D9242505040E2
:101DF000C8F70895629FD001739FF001829FE00DA4
:101E0000F11D649FE00DF11D929FF00D839FF00D79
:101E1000749FF00D659FF00D9927729FB00DE11D25
:101E2000F91F639FB00DE11DF91FBD01CF01112402
:101E3000089597FB092E07260AD077FD04D049D0D4
:101E400006D000201AF4709561957F4F0895F6F73B
:101E5000909581959F4F0895A1E21A2EAA1BBB1B56
:101E6000FD010DC0AA1FBB1FEE1FFF1FA217B30766
:101E7000E407F50720F0A21BB30BE40BF50B661F7C
:101E8000771F881F991F1A9469F760957095809540
:101E900090959B01AC01BD01CF01089597FB092EE0
:101EA00005260ED057FD04D0D7DF0AD0001C38F429
:101EB00050954095309521953F4F4F4F5F4F089576
:101EC000F6F790958095709561957F4F8F4F9F4F56
:101ED0000895AA1BBB1B51E107C0AA1FBB1FA61771
:101EE000B70710F0A61BB70B881F991F5A95A9F7C3
:101EF00080959095BC01CD010895EE0FFF1F0590D0
:061F0000F491E02D0994AC
:101F0600FFFFFFFFBC0278050000201700008018C5
:101F16000000F5190000801B0000231D0000DE1ED6
:101F26000000B4200000A6220000B5240000E4262C
:101F3600000034290000A72B0000402E00000031CD
:101F46000000EA33000000370000463A0000BC3DBE
:101F56000000684100004C4500006A490000C84D79
:101F66000000685200004E570000805C00000062CE
:101F7600000068656C6C6F0077656C636F6D65203B
:101F8600746F2073796E74683373697A30720000E7
:00000001FF
