:100000000C945B000C9481000C9481000C94810092
:100010000C9481000C9481000C9481000C942802B3
:100020000C9481000C9481000C9481000C9481004C
:100030000C9481000C9481000C9481000C9481003C
:100040000C944B030C9481000C942D050C948100AE
:100050000C9481000C9481000C9481000C9481001C
:100060000C9481000C9481004A03000000070002F8
:10007000010000030406000000000000000001026F
:100080000408102040800102040810200102040826
:100090001020040404040404040402020202020204
:1000A0000303030303030000232629000025282B54
:1000B000000024272A0011241FBECFEFD4E0DEBFAA
:1000C000CDBF12E0A0E0B1E0E2E5FDE002C00590A6
:1000D0000D92AC38B107D9F713E0ACE8B2E001C03B
:1000E0001D92A032B107E1F710E0CAE6D0E004C0EB
:1000F0002297FE010E94A506C836D107C9F70C94C5
:100100007A020C9400000F931F9392E0909370007A
:100110008FE78093B3009093B0009093B10080E597
:100120008CBD81E08DBD84B18E6284B9299A7894AA
:1001300061E084E00E94010461E083E00E94010428
:1001400061E082E00E94010460E087E00E94010417
:1001500060E086E00E94010460E085E00E94010406
:1001600061E084E00E94680461E083E00E9468042A
:1001700061E082E00E94680461E088E00E9401047E
:1001800061E088E00E94680464E670E080E090E04E
:100190000E94880360E088E00E94680464E670E0E2
:1001A00080E090E00E94880361E088E00E9468049B
:1001B00064E670E080E090E00E94880360E088E000
:1001C0000E94680407E912E040E855E260E070E050
:1001D000C8010E9487026EE672E0C8010E94BA025E
:1001E00064E772E0C8010E94BA021F910F9108955E
:1001F000EF92FF920F931F93CF93DF93109202021F
:10020000109203021092040210920502C0E0D0E0A6
:10021000CE018170682F84E00E946804BE0175954C
:100220006795617083E00E946804BE0175956795CB
:1002300075956795617082E00E946804E090020203
:10024000F0900302009104021091050285E00E94E3
:100250001F040C2E02C0880F991F0A94E2F7AA27E8
:1002600097FDA095BA2F8E299F29A02BB12B8093A3
:10027000020290930302A0930402B0930502219618
:10028000C830D10529F6BA2FA92F982F8827809337
:10029000020290930302A0930402B0930502C0E00F
:1002A000D0E0CE018170682F84E00E946804BE0116
:1002B00075956795617083E00E946804BE0175952D
:1002C000679575956795617082E00E946804E0907B
:1002D0000202F0900302009104021091050286E0F0
:1002E0000E941F040C2E02C0880F991F0A94E2F787
:1002F000AA2797FDA095BA2F8E299F29A02BB12B55
:100300008093020290930302A0930402B09305022B
:100310002196C830D10529F6BA2FA92F982F882702
:100320008093020290930302A0930402B09305020B
:10033000C0E0D0E0CE018170682F84E00E946804A4
:10034000BE0175956795617083E00E946804BE01E7
:100350007595679575956795617082E00E94680450
:10036000E0900202F0900302009104021091050255
:1003700087E00E941F040C2E02C0880F991F0A9468
:10038000E2F7AA2797FDA095BA2F8E299F29A02BC7
:10039000B12B8093020290930302A0930402B093C6
:1003A00005022196C830D10529F6B160809302027A
:1003B00090930302A0930402B0930502DF91CF91C2
:1003C0001F910F91FF90EF9008950E94F8004091C7
:1003D000020250910302609104027091050220E034
:1003E00030E0E6E0F2E0DB01CA01022E04C0B6957F
:1003F000A795979587950A94D2F780FD14C08081C0
:100400009181A281B38122E0B695A79597958795B2
:100410002A95D1F78093930290939402A09395022A
:10042000B09396020EC02F5F3F4F349629313105AD
:10043000D1F61092930210929402109295021092AB
:10044000960265E070E080E090E00E9488030895E5
:100450001F920F920FB60F9211242F933F938F93F9
:100460009F93EF93FF938FE78093B300E0918D020A
:10047000F0918E028091930290919402E80FF91FFF
:10048000F0938E02E0938D02EF2FFF27E0938C0212
:10049000EE5FFE4F808199279093010180930001C8
:1004A000982F88279093920280939102292F3327C7
:1004B00022952F7020632093900234E096958795C3
:1004C0003A95E1F7382F80938F0229982EBD0DB40D
:1004D00007FEFDCF3EBD0DB407FEFDCF299AFF916B
:1004E000EF919F918F913F912F910F900FBE0F90A1
:1004F0001F901895CFEFD4E0DEBFCDBF0E94B703A9
:100500000E9483000E94E501FDCF08950895CB016C
:10051000BA010E94B30408950E94F4049927089533
:100520000E94050508950E9424050895862F0E94C3
:100530006B050895CB010E9472050895862F0E94D5
:100540006B0508950F931F938C016DE00E94960236
:100550006AE0C8010E9496021F910F9108950F93BF
:100560001F938C010E949602C8010E94A2021F9153
:100570000F9108950F931F938C010E949A02C80156
:100580000E94A2021F910F9108950F931F938C0157
:100590000E949E02C8010E94A2021F910F9108951D
:1005A000CB01BA013327442755270E947F050895C0
:1005B0002AE00E94D00208950F931F938C010E949D
:1005C000D802C8010E94A2021F910F910895AB01A9
:1005D000662777270E94D8020895EF92FF920F9323
:1005E0001F93CF93DF93EC017A018B0177FF0BC050
:1005F0006DE20E94960210950095F094E094E11C43
:10060000F11C011D111D2AE0B801A701CE010E94B5
:10061000D002DF91CF911F910F91FF90EF9008953D
:100620000F931F938C010E94ED02C8010E94A20249
:100630001F910F9108952115310521F4642F0E9417
:10064000960208952A30310519F40E94ED020895AA
:100650000E94D00208950F931F938C010E941B03E8
:10066000C8010E94A2021F910F910895AB01662755
:1006700057FD6095762F0E94ED0208950F931F930A
:100680008C010E943603C8010E94A2021F910F91A3
:100690000895089508951F920F920FB60F92112496
:1006A0008F939F93AF93BF9380919C0290919D02F3
:1006B000A0919E02B0919F020196A11DB11D809351
:1006C0009C0290939D02A0939E02B0939F02BF91C3
:1006D000AF919F918F910F900FBE0F901F90189523
:1006E00060919C0270919D0280919E0290919F0268
:1006F00027E0660F771F881F991F2A95D1F72DE7EE
:1007000030E040E050E00E945206CA01B90108956D
:10071000AF92BF92CF92DF92EF92FF920F931F930F
:100720005B016C010E9470037B018C010E947003CD
:100730006E197F09800B910B6A157B058C059D0551
:10074000A8F31F910F91FF90EF90DF90CF90BF9093
:10075000AF900895019751F0880F991F880F991F46
:1007600002972FB7F8940197F1F72FBF0895789467
:1007700010929C0210929D0210929E0210929F0273
:1007800084B5826084BD84B5816084BD85B5826096
:1007900085BD85B5816085BDEEE6F0E08081816034
:1007A0008083E1E8F0E080818260808380818160E5
:1007B0008083E0E8F0E0808181608083E1EBF0E01D
:1007C000808184608083E0EBF0E0808181608083C1
:1007D000ECE7F0E080818F77808380818064808384
:1007E000EAE7F0E08081846080838081826080839A
:1007F0008081816080838081806880831092C100C5
:100800000895282F3327C90182589F4FFC019491E6
:100810002E563F4FF9018491882381F0E82FFF275E
:10082000E055FF4FE491FF27662329F480819095DE
:100830008923808308958081892B80830895482FA0
:100840005527CA0186599F4FFC012491CA0182583D
:100850009F4FFC0194914E565F4FFA013491332320
:10086000A1F1222331F1233021F4809180008F7790
:1008700005C0243031F4809180008F7D809380000A
:1008800018C0213019F484B58F7704C0223021F4C8
:1008900084B58F7D84BD0DC0263021F48091B000D9
:1008A0008F7705C0273029F48091B0008F7D809329
:1008B000B000E32FFF27EA55FF4FE491FF27808127
:1008C000892319F081E090E0089580E090E0089598
:1008D000482F5527CA0186599F4FFC012491CA0110
:1008E00082589F4FFC0194914E565F4FFA0134910C
:1008F0003323C1F1222331F1233021F48091800090
:100900008F7705C0243031F4809180008F7D8093F3
:10091000800018C0213019F484B58F7704C02230CC
:1009200021F484B58F7D84BD0DC0263021F48091E3
:10093000B0008F7705C0273029F48091B0008F7DFB
:100940008093B000E32FFF27E555FF4FE491FF2789
:10095000662329F48081909589238083089580817E
:10096000892B80830895EF92FF920F931F937B0151
:100970008C0122E030E040E050E00E947406205CF0
:100980003D4B404F5F4FCA01B901A80197010E943A
:1009900074062150304040405040BB2757FDBA9567
:1009A000A52F942F832F2F5F3F4F4F4F5F4F809383
:1009B000C50021502093C400E1ECF0E0808180610B
:1009C00080838081886080838081806880831F919C
:1009D0000F91FF90EF900895982F8091C00085FFB0
:1009E000FCCF9093C600089580919A0290919B024B
:1009F0002091980230919902821B930B80589F4F4F
:100A000060E870E00E943F0608954091980250917E
:100A1000990280919A0290919B028417950719F48C
:100A20008FEF9FEF0895FA01E056FD4F2081CA0134
:100A3000019660E870E00E943F06909399028093CF
:100A40009802822F99270895809198029091990297
:100A500090939B0280939A0208951F920F920FB673
:100A60000F9211242F933F934F935F936F937F9334
:100A70008F939F93AF93BF93EF93FF934091C600E3
:100A8000E0919A02F0919B02CF01019660E870E03C
:100A90000E943F069C01809198029091990228172C
:100AA000390739F0E056FD4F408330939B02209385
:100AB0009A02FF91EF91BF91AF919F918F917F919A
:100AC0006F915F914F913F912F910F900FBE0F90BB
:100AD0001F90189508950E94EC0408958AE00E94E2
:100AE0006B050895CF93DF93EC0103C021960E941C
:100AF0006B0588818823D1F7DF91CF9108952F92DC
:100B00003F924F925F926F927F928F929F92AF929D
:100B1000BF92CF92DF92EF92FF920F931F93CF93EA
:100B2000DF93CDB7DEB7A0970FB6F894DEBF0FBE48
:100B3000CDBF6B017C0119012A0161157105810589
:100B4000910521F480E30E946B054BC06624772455
:100B500043015E010894A11CB11C8501060D171DFF
:100B6000C701B601A20191010E945206F8016083FB
:100B70000894611C711C811C911CC701B601A20163
:100B800091010E94520669017A0121153105410542
:100B9000510519F773010894E108F108EA0CFB1CF0
:100BA000AA24BB24650111C0F70180818A3010F4AA
:100BB000805D01C0895C0E946B050894A108B108A2
:100BC000C108D1080894E108F10888279927DC01B9
:100BD00086199709A809B909A816B906CA06DB0635
:100BE00019F7A0960FB6F894DEBF0FBECDBFDF9108
:100BF000CF911F910F91FF90EF90DF90CF90BF901A
:100C0000AF909F908F907F906F905F904F903F90AC
:100C10002F900895EF92FF920F931F937B018C0109
:100C200097FF0BC08DE20E946B0510950095F09424
:100C3000E094E11CF11C011D111D2AE030E040E0B0
:100C400050E0C801B7010E947F051F910F91FF90EE
:100C5000EF90089520E130E040E050E00E947F05F1
:100C6000089528E030E040E050E00E947F050895BC
:100C700022E030E040E050E00E947F05089597FBBD
:100C8000092E07260AD077FD04D049D006D00020CF
:100C90001AF4709561957F4F0895F6F790958195B8
:100CA0009F4F0895A1E21A2EAA1BBB1BFD010DC088
:100CB000AA1FBB1FEE1FFF1FA217B307E407F5070C
:100CC00020F0A21BB30BE40BF50B661F771F881FE8
:100CD000991F1A9469F760957095809590959B017E
:100CE000AC01BD01CF01089597FB092E05260ED05A
:100CF00057FD04D0D7DF0AD0001C38F4509540953A
:100D0000309521953F4F4F4F5F4F0895F6F79095DF
:100D10008095709561957F4F8F4F9F4F0895AA1BC7
:100D2000BB1B51E107C0AA1FBB1FA617B70710F0D6
:100D3000A61BB70B881F991F5A95A9F78095909508
:100D4000BC01CD010895EE0FFF1F0590F491E02D39
:020D5000099404
:100D52000800808386898C8F9295989C9FA2A5A873
:100D6200ABAEB0B3B6B9BCBFC1C4C7C9CCCED1D388
:100D7200D5D8DADCDEE0E2E4E6E8EAECEDEFF0F228
:100D8200F3F5F6F7F8F9FAFBFCFCFDFEFEFFFFFFB8
:100D9200FFFFFFFFFFFFFFFFFEFEFDFCFCFBFAF97A
:100DA200F8F7F6F5F3F2F0EFEDECEAE8E6E4E2E06C
:100DB200DEDCDAD8D5D3D1CECCC9C7C4C1BFBCB969
:100DC200B6B3B0AEABA8A5A29F9C9895928F8C8922
:100DD2008683807C797673706D6A6763605D5A572B
:100DE20054514F4C494643403E3B383633312E2C0A
:100DF2002A272523211F1D1B1917151312100F0D4A
:100E02000C0A090807060504030302010100000099
:100E120000000000000000000101020303040506B7
:100E22000708090A0C0D0F1012131517191B1D1FA5
:100E3200212325272A2C2E313336383B3E40434688
:100E4200494C4F5154575A5D6063676A6D707376AF
:100E5200797CFFFFFFFF2017000080180000F519C2
:100E62000000801B0000231D0000DE1E0000B420D5
:100E72000000A6220000B5240000E4260000342968
:100E82000000A72B0000402E000000310000EA33D2
:100E9200000000370000463A0000BC3D00006841F7
:100EA20000004C4500006A490000C84D000068522D
:100EB20000004E570000805C000000620000686580
:100EC2006C6C6F0077656C636F6D6520746F207357
:0C0ED200796E74686573697A65720000BF
:00000001FF
